{
  "contractName": "admined",
  "abi": [
    {
      "constant": true,
      "inputs": [],
      "name": "admin",
      "outputs": [
        {
          "name": "",
          "type": "address"
        }
      ],
      "payable": false,
      "stateMutability": "view",
      "type": "function"
    },
    {
      "inputs": [],
      "payable": false,
      "stateMutability": "nonpayable",
      "type": "constructor"
    },
    {
      "constant": false,
      "inputs": [
        {
          "name": "newAdmin",
          "type": "address"
        }
      ],
      "name": "transferAdminship",
      "outputs": [],
      "payable": false,
      "stateMutability": "nonpayable",
      "type": "function"
    }
  ],
  "bytecode": "0x608060405234801561001057600080fd5b50336000806101000a81548173ffffffffffffffffffffffffffffffffffffffff021916908373ffffffffffffffffffffffffffffffffffffffff1602179055506101da806100606000396000f30060806040526004361061004c576000357c0100000000000000000000000000000000000000000000000000000000900463ffffffff1680635be7cc1614610051578063f851a44014610094575b600080fd5b34801561005d57600080fd5b50610092600480360381019080803573ffffffffffffffffffffffffffffffffffffffff1690602001909291905050506100eb565b005b3480156100a057600080fd5b506100a9610189565b604051808273ffffffffffffffffffffffffffffffffffffffff1673ffffffffffffffffffffffffffffffffffffffff16815260200191505060405180910390f35b6000809054906101000a900473ffffffffffffffffffffffffffffffffffffffff1673ffffffffffffffffffffffffffffffffffffffff163373ffffffffffffffffffffffffffffffffffffffff1614151561014657600080fd5b806000806101000a81548173ffffffffffffffffffffffffffffffffffffffff021916908373ffffffffffffffffffffffffffffffffffffffff16021790555050565b6000809054906101000a900473ffffffffffffffffffffffffffffffffffffffff16815600a165627a7a723058209dbae2b49ed352c15f7cd3fee23e88fad3d6c3ecf8e147a2a1056c86b14e76230029",
  "source": "pragma solidity ^0.4.8;\n\ncontract admined {\n\taddress public admin;\n\n\tconstructor() public {\n\t\tadmin = msg.sender;\n\t}\n\n\tmodifier onlyAdmin(){\n\t\trequire(msg.sender == admin) ;\n\t\t_;\n\t}\n\n\tfunction transferAdminship(address newAdmin) onlyAdmin public  {\n\t\tadmin = newAdmin;\n\t}\n\n}\n\ncontract TCoin {\n\n\tmapping (address => uint256) public balanceOf;\n\tmapping (address => mapping (address => uint256)) public allowance;\n\t// balanceOf[address] = 5;\n\tstring public standard = \"TCoin v1.0\";\n\tstring public name;\n\tstring public symbol;\n\tuint8 public decimals; \n\tuint256 public totalSupply;\n\tevent Transfer(address indexed from, address indexed to, uint256 value);\n\n\n\tconstructor(uint256 initialSupply, string tokenName, string tokenSymbol, uint8 decimalUnits) public {\n\t\tbalanceOf[msg.sender] = initialSupply;\n\t\ttotalSupply = initialSupply;\n\t\tdecimals = decimalUnits;\n\t\tsymbol = tokenSymbol;\n\t\tname = tokenName;\n\t}\n\n\tfunction transfer(address _to, uint256 _value) public {\n\t\t\trequire(balanceOf[msg.sender] > _value) ;\n\t\trequire(balanceOf[_to] + _value > balanceOf[_to]) ;\n\t\t//if(admin)\n\n\t\tbalanceOf[msg.sender] -= _value;\n\t\tbalanceOf[_to] += _value;\n\t\temit Transfer(msg.sender, _to, _value);\n\t}\n\n\tfunction approve(address _spender, uint256 _value) public returns (bool success){\n\t\tallowance[msg.sender][_spender] = _value;\n\t\treturn true;\n\t}\n\n\tfunction transferFrom(address _from, address _to, uint256 _value) public returns (bool success){\n\t\trequire(balanceOf[_from] > _value) ;\n\t\trequire(balanceOf[_to] + _value > balanceOf[_to]) ;\n\t\trequire(_value < allowance[_from][msg.sender]) ;\n\t\tbalanceOf[_from] -= _value;\n\t\tbalanceOf[_to] += _value;\n\t\tallowance[_from][msg.sender] -= _value;\n\t\temit Transfer(_from, _to, _value);\n\t\treturn true;\n\n\t}\n}\n\ncontract TCoinAdvanced is admined, TCoin{\n\n\tuint256 minimumBalanceForAccounts = 5 finney;\n\tuint256 public sellPrice;\n\tuint256 public buyPrice;\n\n\tconstructor(uint256 initialSupply, string tokenName, string tokenSymbol, uint8 decimalUnits, address centralAdmin) TCoin (0, tokenName, tokenSymbol, decimalUnits ) public {\n\t\t\n\t\tif(centralAdmin != 0)\n\t\t\tadmin = centralAdmin;\n\t\telse\n\t\t\tadmin = msg.sender;\n\t\tbalanceOf[admin] = initialSupply;\n\t\ttotalSupply = initialSupply;\t\n\t}\n\n\tfunction mintToken(address target, uint256 mintedAmount) onlyAdmin public {\n\t\tbalanceOf[target] += mintedAmount;\n\t\ttotalSupply += mintedAmount;\n\t\temit Transfer(0, this, mintedAmount);\n\t\temit Transfer(this, target, mintedAmount);\n\t}\n\n\n\tfunction transfer(address _to, uint256 _value) public {\n\t\trequire(_value>0);\n\t\trequire(balanceOf[msg.sender] >= _value) ;\n\t\trequire(balanceOf[_to] + _value > balanceOf[_to]) ;\n\t\t\n\t\tbalanceOf[msg.sender] -= _value;\n\t\tbalanceOf[_to] += _value;\n\t\temit Transfer(msg.sender, _to, _value);\n\t}\n\n\tfunction transferFrom(address _from, address _to, uint256 _value) public returns (bool success) {\n\t\trequire(balanceOf[_from] > _value) ;\n\t\trequire(balanceOf[_to] + _value > balanceOf[_to]) ;\n\t\trequire(_value < allowance[_from][msg.sender]) ;\n\t\tbalanceOf[_from] -= _value;\n\t\tbalanceOf[_to] += _value;\n\t\tallowance[_from][msg.sender] -= _value;\n\t\temit Transfer(_from, _to, _value);\n\t\treturn true;\n\n\t}\n\n\tfunction setPrices(uint256 newSellPrice, uint256 newBuyPrice) onlyAdmin public {\n\t\tsellPrice = newSellPrice;\n\t\tbuyPrice = newBuyPrice;\n\t}\n\n\tfunction buy() payable  public {\n\t\tuint256 amount = (msg.value/(1 ether)) / buyPrice;\n\t\trequire(balanceOf[this] > amount) ;\n\t\tbalanceOf[msg.sender] += amount;\n\t\tbalanceOf[this] -= amount;\n\t\temit Transfer(this, msg.sender, amount);\n\t}\n\n\tfunction sell(uint256 amount) public {\n\t\trequire(balanceOf[msg.sender] > amount) ;\n\t\tbalanceOf[this] +=amount;\n\t\tbalanceOf[msg.sender] -= amount;\n\t\tif(!msg.sender.send(amount * sellPrice * 1 ether)){\n\t\t\trevert();\n\t\t} else {\n\t\t\t\n\t\t\temit Transfer(msg.sender, this, amount);\n\t\t}\n\t}\n\n}\n\n\n\n\n\n",
  "sourcePath": "/home/saurabh/Desktop/Work/IDE/Blockchain/truffle/ICO tut/contracts/TCoinAdvanced.sol",
  "compiler": {
    "name": "solc",
    "version": "0.4.23+commit.124ca40d.Emscripten.clang"
  },
  "schemaVersion": "2.0.0",
  "updatedAt": "2018-05-13T05:59:49.670Z"
}