{
  "contractName": "CrowdSale",
  "abi": [
    {
      "constant": true,
      "inputs": [],
      "name": "creator",
      "outputs": [
        {
          "name": "",
          "type": "address"
        }
      ],
      "payable": false,
      "stateMutability": "view",
      "type": "function"
    },
    {
      "constant": true,
      "inputs": [],
      "name": "deadline",
      "outputs": [
        {
          "name": "",
          "type": "uint256"
        }
      ],
      "payable": false,
      "stateMutability": "view",
      "type": "function"
    },
    {
      "constant": true,
      "inputs": [],
      "name": "completedAt",
      "outputs": [
        {
          "name": "",
          "type": "uint256"
        }
      ],
      "payable": false,
      "stateMutability": "view",
      "type": "function"
    },
    {
      "constant": true,
      "inputs": [],
      "name": "beneficiary",
      "outputs": [
        {
          "name": "",
          "type": "address"
        }
      ],
      "payable": false,
      "stateMutability": "view",
      "type": "function"
    },
    {
      "constant": true,
      "inputs": [],
      "name": "priceInWei",
      "outputs": [
        {
          "name": "",
          "type": "uint256"
        }
      ],
      "payable": false,
      "stateMutability": "view",
      "type": "function"
    },
    {
      "constant": true,
      "inputs": [],
      "name": "tokenReward",
      "outputs": [
        {
          "name": "",
          "type": "address"
        }
      ],
      "payable": false,
      "stateMutability": "view",
      "type": "function"
    },
    {
      "constant": true,
      "inputs": [],
      "name": "fundingMinimumTargetInWei",
      "outputs": [
        {
          "name": "",
          "type": "uint256"
        }
      ],
      "payable": false,
      "stateMutability": "view",
      "type": "function"
    },
    {
      "constant": true,
      "inputs": [],
      "name": "fundingMaximumTargetInWei",
      "outputs": [
        {
          "name": "",
          "type": "uint256"
        }
      ],
      "payable": false,
      "stateMutability": "view",
      "type": "function"
    },
    {
      "constant": true,
      "inputs": [],
      "name": "state",
      "outputs": [
        {
          "name": "",
          "type": "uint8"
        }
      ],
      "payable": false,
      "stateMutability": "view",
      "type": "function"
    },
    {
      "constant": true,
      "inputs": [],
      "name": "totalRaised",
      "outputs": [
        {
          "name": "",
          "type": "uint256"
        }
      ],
      "payable": false,
      "stateMutability": "view",
      "type": "function"
    },
    {
      "constant": true,
      "inputs": [],
      "name": "currentBalance",
      "outputs": [
        {
          "name": "",
          "type": "uint256"
        }
      ],
      "payable": false,
      "stateMutability": "view",
      "type": "function"
    },
    {
      "inputs": [
        {
          "name": "_timeInMinutesForFundraising",
          "type": "uint256"
        },
        {
          "name": "_campaignUrl",
          "type": "string"
        },
        {
          "name": "_ifSuccessfulSendTo",
          "type": "address"
        },
        {
          "name": "_fundingMinimumTargetInEther",
          "type": "uint256"
        },
        {
          "name": "_fundingMaximumTargetInEther",
          "type": "uint256"
        },
        {
          "name": "_addressOfTokenUsedAsReward",
          "type": "address"
        },
        {
          "name": "_CostOfEachTokenInWei",
          "type": "uint256"
        }
      ],
      "payable": false,
      "stateMutability": "nonpayable",
      "type": "constructor"
    },
    {
      "payable": false,
      "stateMutability": "nonpayable",
      "type": "fallback"
    },
    {
      "anonymous": false,
      "inputs": [
        {
          "indexed": false,
          "name": "addr",
          "type": "address"
        },
        {
          "indexed": false,
          "name": "amount",
          "type": "uint256"
        },
        {
          "indexed": false,
          "name": "currentTotal",
          "type": "uint256"
        }
      ],
      "name": "LogFundingReceived",
      "type": "event"
    },
    {
      "anonymous": false,
      "inputs": [
        {
          "indexed": false,
          "name": "winnerAddress",
          "type": "address"
        }
      ],
      "name": "LogWinnerPaid",
      "type": "event"
    },
    {
      "anonymous": false,
      "inputs": [
        {
          "indexed": false,
          "name": "totalRaised",
          "type": "uint256"
        }
      ],
      "name": "LogFundingSuccessful",
      "type": "event"
    },
    {
      "anonymous": false,
      "inputs": [
        {
          "indexed": false,
          "name": "creator",
          "type": "address"
        },
        {
          "indexed": false,
          "name": "beneficiary",
          "type": "address"
        },
        {
          "indexed": false,
          "name": "url",
          "type": "string"
        },
        {
          "indexed": false,
          "name": "_fundingMaximumTargetInEther",
          "type": "uint256"
        },
        {
          "indexed": false,
          "name": "deadline",
          "type": "uint256"
        }
      ],
      "name": "LogFunderInitialized",
      "type": "event"
    },
    {
      "constant": false,
      "inputs": [],
      "name": "contribute",
      "outputs": [
        {
          "name": "",
          "type": "uint256"
        }
      ],
      "payable": true,
      "stateMutability": "payable",
      "type": "function"
    },
    {
      "constant": false,
      "inputs": [],
      "name": "checkIfFundingCompleteOrExpired",
      "outputs": [],
      "payable": false,
      "stateMutability": "nonpayable",
      "type": "function"
    },
    {
      "constant": false,
      "inputs": [],
      "name": "payOut",
      "outputs": [],
      "payable": false,
      "stateMutability": "nonpayable",
      "type": "function"
    },
    {
      "constant": false,
      "inputs": [],
      "name": "getRefund",
      "outputs": [
        {
          "name": "",
          "type": "bool"
        }
      ],
      "payable": false,
      "stateMutability": "nonpayable",
      "type": "function"
    },
    {
      "constant": false,
      "inputs": [],
      "name": "removeContract",
      "outputs": [],
      "payable": false,
      "stateMutability": "nonpayable",
      "type": "function"
    }
  ],
  "bytecode": "0x608060405260008060006101000a81548160ff021916908360038111156200002357fe5b02179055503480156200003557600080fd5b506040516200122e3803806200122e8339810180604052810190808051906020019092919080518201929190602001805190602001909291908051906020019092919080519060200190929190805190602001909291908051906020019092919050505033600a60006101000a81548173ffffffffffffffffffffffffffffffffffffffff021916908373ffffffffffffffffffffffffffffffffffffffff16021790555084600b60006101000a81548173ffffffffffffffffffffffffffffffffffffffff021916908373ffffffffffffffffffffffffffffffffffffffff16021790555085600c9080519060200190620001339291906200033d565b50670de0b6b3a76400008402600781905550670de0b6b3a76400008302600881905550603c87024201600481905550600060038190555081600960006101000a81548173ffffffffffffffffffffffffffffffffffffffff021916908373ffffffffffffffffffffffffffffffffffffffff160217905550806006819055507f8162f6314365078618b76691719ca4f4c7ab1b30cd94a9f1e2bd2fffb3958e67600a60009054906101000a900473ffffffffffffffffffffffffffffffffffffffff16600b60009054906101000a900473ffffffffffffffffffffffffffffffffffffffff16600c600854600454604051808673ffffffffffffffffffffffffffffffffffffffff1673ffffffffffffffffffffffffffffffffffffffff1681526020018573ffffffffffffffffffffffffffffffffffffffff1673ffffffffffffffffffffffffffffffffffffffff168152602001806020018481526020018381526020018281038252858181546001816001161561010002031660029004815260200191508054600181600116156101000203166002900480156200031e5780601f10620002f2576101008083540402835291602001916200031e565b820191906000526020600020905b8154815290600101906020018083116200030057829003601f168201915b5050965050505050505060405180910390a150505050505050620003ec565b828054600181600116156101000203166002900490600052602060002090601f016020900481019282601f106200038057805160ff1916838001178555620003b1565b82800160010185558215620003b1579182015b82811115620003b057825182559160200191906001019062000393565b5b509050620003c09190620003c4565b5090565b620003e991905b80821115620003e5576000816000905550600101620003cb565b5090565b90565b610e3280620003fc6000396000f3006080604052600436106100e6576000357c0100000000000000000000000000000000000000000000000000000000900463ffffffff16806302d05d3f146100f857806329dcb0cf1461014f578063387712421461017a57806338af3eed146101a55780633c8da588146101fc5780636e66f6e91461022757806371ae8f021461027e57806386f32586146102a9578063aa367664146102c0578063b2d5ae44146102eb578063c19d93fb1461031a578063c205240314610353578063c5c4744c1461036a578063ce845d1d14610395578063d7bb99ba146103c0578063fe389e09146103de575b3480156100f257600080fd5b50600080fd5b34801561010457600080fd5b5061010d6103f5565b604051808273ffffffffffffffffffffffffffffffffffffffff1673ffffffffffffffffffffffffffffffffffffffff16815260200191505060405180910390f35b34801561015b57600080fd5b5061016461041b565b6040518082815260200191505060405180910390f35b34801561018657600080fd5b5061018f610421565b6040518082815260200191505060405180910390f35b3480156101b157600080fd5b506101ba610427565b604051808273ffffffffffffffffffffffffffffffffffffffff1673ffffffffffffffffffffffffffffffffffffffff16815260200191505060405180910390f35b34801561020857600080fd5b5061021161044d565b6040518082815260200191505060405180910390f35b34801561023357600080fd5b5061023c610453565b604051808273ffffffffffffffffffffffffffffffffffffffff1673ffffffffffffffffffffffffffffffffffffffff16815260200191505060405180910390f35b34801561028a57600080fd5b50610293610479565b6040518082815260200191505060405180910390f35b3480156102b557600080fd5b506102be61047f565b005b3480156102cc57600080fd5b506102d56105c9565b6040518082815260200191505060405180910390f35b3480156102f757600080fd5b506103006105cf565b604051808215151515815260200191505060405180910390f35b34801561032657600080fd5b5061032f6107bb565b6040518082600381111561033f57fe5b60ff16815260200191505060405180910390f35b34801561035f57600080fd5b506103686107cd565b005b34801561037657600080fd5b5061037f61092d565b6040518082815260200191505060405180910390f35b3480156103a157600080fd5b506103aa610933565b6040518082815260200191505060405180910390f35b6103c8610939565b6040518082815260200191505060405180910390f35b3480156103ea57600080fd5b506103f3610d1e565b005b600a60009054906101000a900473ffffffffffffffffffffffffffffffffffffffff1681565b60045481565b60055481565b600b60009054906101000a900473ffffffffffffffffffffffffffffffffffffffff1681565b60065481565b600960009054906101000a900473ffffffffffffffffffffffffffffffffffffffff1681565b60075481565b6000600854141580156104955750600854600254115b1561050a5760026000806101000a81548160ff021916908360038111156104b857fe5b02179055507fee94ee98208684c00eeba940c34a6060b93671b249abd182b4771b74bf94e2dd6002546040518082815260200191505060405180910390a16104fe6107cd565b426005819055506105c7565b6004544211156105c6576007546002541015156105915760026000806101000a81548160ff0219169083600381111561053f57fe5b02179055507fee94ee98208684c00eeba940c34a6060b93671b249abd182b4771b74bf94e2dd6002546040518082815260200191505060405180910390a16105856107cd565b426005819055506105c5565b60016000806101000a81548160ff021916908360038111156105af57fe5b0217905550426005819055506105c36105cf565b505b5b5b565b60085481565b600080600060018060038111156105e257fe5b6000809054906101000a900460ff1660038111156105fc57fe5b14151561060857600080fd5b600092505b600180549050831115156107b0573373ffffffffffffffffffffffffffffffffffffffff1660018481548110151561064157fe5b906000526020600020906002020160010160009054906101000a900473ffffffffffffffffffffffffffffffffffffffff1673ffffffffffffffffffffffffffffffffffffffff1614156107a35760018381548110151561069e57fe5b906000526020600020906002020160000154915060006001848154811015156106c357fe5b9060005260206000209060020201600001819055506001838154811015156106e757fe5b906000526020600020906002020160010160009054906101000a900473ffffffffffffffffffffffffffffffffffffffff1673ffffffffffffffffffffffffffffffffffffffff166108fc839081150290604051600060405180830381858888f193505050501515610781578160018481548110151561076357fe5b906000526020600020906002020160000181905550600093506107b5565b81600260008282540392505081905550600254600381905550600193506107b5565b828060010193505061060d565b600093505b50505090565b6000809054906101000a900460ff1681565b60028060038111156107db57fe5b6000809054906101000a900460ff1660038111156107f557fe5b14151561080157600080fd5b600b60009054906101000a900473ffffffffffffffffffffffffffffffffffffffff1673ffffffffffffffffffffffffffffffffffffffff166108fc3073ffffffffffffffffffffffffffffffffffffffff16319081150290604051600060405180830381858888f19350505050151561087a57600080fd5b60036000806101000a81548160ff0219169083600381111561089857fe5b021790555060006003819055507fcc2a9192e91e4dd58845fd890b297de7bfda33e9f07f14bb2e4fe2237c86723d600b60009054906101000a900473ffffffffffffffffffffffffffffffffffffffff16604051808273ffffffffffffffffffffffffffffffffffffffff1673ffffffffffffffffffffffffffffffffffffffff16815260200191505060405180910390a150565b60025481565b60035481565b600080600080600381111561094a57fe5b6000809054906101000a900460ff16600381111561096457fe5b14151561097057600080fd5b6006543411151561098057600080fd5b60006006543481151561098f57fe5b0614151561099c57600080fd5b349150600160408051908101604052803481526020013373ffffffffffffffffffffffffffffffffffffffff16815250908060018154018082558091505090600182039060005260206000209060020201600090919290919091506000820151816000015560208201518160010160006101000a81548173ffffffffffffffffffffffffffffffffffffffff021916908373ffffffffffffffffffffffffffffffffffffffff160217905550505050346002600082825401925050819055506002546003819055506000600854141515610b8357600960009054906101000a900473ffffffffffffffffffffffffffffffffffffffff1673ffffffffffffffffffffffffffffffffffffffff1663a9059cbb3360065485811515610abc57fe5b046040518363ffffffff167c0100000000000000000000000000000000000000000000000000000000028152600401808373ffffffffffffffffffffffffffffffffffffffff1673ffffffffffffffffffffffffffffffffffffffff16815260200182815260200192505050602060405180830381600087803b158015610b4257600080fd5b505af1158015610b56573d6000803e3d6000fd5b505050506040513d6020811015610b6c57600080fd5b810190808051906020019092919050505050610c92565b600960009054906101000a900473ffffffffffffffffffffffffffffffffffffffff1673ffffffffffffffffffffffffffffffffffffffff166379c650683360065485811515610bcf57fe5b046040518363ffffffff167c0100000000000000000000000000000000000000000000000000000000028152600401808373ffffffffffffffffffffffffffffffffffffffff1673ffffffffffffffffffffffffffffffffffffffff16815260200182815260200192505050602060405180830381600087803b158015610c5557600080fd5b505af1158015610c69573d6000803e3d6000fd5b505050506040513d6020811015610c7f57600080fd5b8101908080519060200190929190505050505b7f304e48bb03eae5e9bf3575d270648664895983e116a51773a65e9f3341b3b40e3334600254604051808473ffffffffffffffffffffffffffffffffffffffff1673ffffffffffffffffffffffffffffffffffffffff168152602001838152602001828152602001935050505060405180910390a1610d0f61047f565b60018080549050039250505090565b600a60009054906101000a900473ffffffffffffffffffffffffffffffffffffffff1673ffffffffffffffffffffffffffffffffffffffff163373ffffffffffffffffffffffffffffffffffffffff16141515610d7a57600080fd5b60016003811115610d8757fe5b6000809054906101000a900460ff166003811115610da157fe5b1480610dd1575060026003811115610db557fe5b6000809054906101000a900460ff166003811115610dcf57fe5b145b8015610de2575042610e1060055401105b1515610ded57600080fd5b3373ffffffffffffffffffffffffffffffffffffffff16ff00a165627a7a723058203b8dd1941c84137fc39b1758de3147786ec2d1f0415834fb881da54f61003dbd0029",
  "source": "pragma solidity ^0.4.16;\n\n\nimport \"./MassToken.sol\";\n\n\ncontract CrowdSale {\n    enum State {\n        Fundraising,\n        Failed,\n        Successful,\n        Closed\n    }\n    State public state = State.Fundraising;\n\n    struct Contribution {\n        uint amount;\n        address contributor;\n    }\n    Contribution[] contributions;\n\n    \n    \n    uint public totalRaised;\n    uint public currentBalance;\n    uint public deadline;\n    uint public completedAt;\n    uint public priceInWei;\n    uint public fundingMinimumTargetInWei; \n    uint public fundingMaximumTargetInWei; \n    MassToken public tokenReward;\n    address public creator;\n    address public beneficiary; \n    string campaignUrl;\n    byte constant version = \"1\";\n\n    \n    event LogFundingReceived(address addr, uint amount, uint currentTotal);\n    event LogWinnerPaid(address winnerAddress);\n    event LogFundingSuccessful(uint totalRaised);\n    event LogFunderInitialized(\n        address creator,\n        address beneficiary,\n        string url,\n        uint _fundingMaximumTargetInEther, \n        uint256 deadline);\n\n\n    modifier inState(State _state) {\n        require(state == _state) ;\n        _;\n    }\n\n     modifier isMinimum() {\n        require(msg.value > priceInWei) ;\n        _;\n    }\n\n    modifier inMultipleOfPrice() {\n        require(msg.value%priceInWei == 0) ;\n        _;\n    }\n\n    modifier isCreator() {\n        require(msg.sender == creator) ;\n        _;\n    }\n\n    \n    modifier atEndOfLifecycle() {\n        if(!((state == State.Failed || state == State.Successful) && completedAt + 1 hours < now)) {\n            revert();\n        }\n        _;\n    }\n\n    \n    constructor(\n        uint _timeInMinutesForFundraising,\n        string _campaignUrl,\n        address _ifSuccessfulSendTo,\n        uint _fundingMinimumTargetInEther,\n        uint _fundingMaximumTargetInEther,\n        MassToken _addressOfTokenUsedAsReward,\n        uint _CostOfEachTokenInWei) public\n    {\n        creator = msg.sender;\n        beneficiary = _ifSuccessfulSendTo;\n        campaignUrl = _campaignUrl;\n        fundingMinimumTargetInWei = _fundingMinimumTargetInEther * 1 ether; \n        fundingMaximumTargetInWei = _fundingMaximumTargetInEther * 1 ether; \n        deadline = now + (_timeInMinutesForFundraising * 1 minutes);\n        currentBalance = 0;\n        tokenReward = MassToken(_addressOfTokenUsedAsReward);\n        priceInWei = _CostOfEachTokenInWei;\n        emit LogFunderInitialized(\n            creator,\n            beneficiary,\n            campaignUrl,\n            fundingMaximumTargetInWei,\n            deadline);\n    }\n\n    function contribute()\n    public\n    inState(State.Fundraising) isMinimum() inMultipleOfPrice() payable returns (uint256)\n    {\n        uint256 amountInWei = msg.value;\n\n        \n        contributions.push(\n            Contribution({\n                amount: msg.value,\n                contributor: msg.sender\n                }) \n            );\n\n        totalRaised += msg.value;\n        currentBalance = totalRaised;\n\n\n        if(fundingMaximumTargetInWei != 0){\n            \n            tokenReward.transfer(msg.sender, amountInWei / priceInWei);\n        }\n        else{\n            tokenReward.mintToken(msg.sender, amountInWei / priceInWei);\n        }\n\n       emit  LogFundingReceived(msg.sender, msg.value, totalRaised);\n\n        \n\n        checkIfFundingCompleteOrExpired();\n        return contributions.length - 1; \n    }\n\n    function checkIfFundingCompleteOrExpired() public {\n        \n       \n        if (fundingMaximumTargetInWei != 0 && totalRaised > fundingMaximumTargetInWei) {\n            state = State.Successful;\n            emit LogFundingSuccessful(totalRaised);\n            payOut();\n            completedAt = now;\n            \n        } else if ( now > deadline )  {\n            if(totalRaised >= fundingMinimumTargetInWei){\n                state = State.Successful;\n                emit LogFundingSuccessful(totalRaised);\n                payOut();  \n                completedAt = now;\n            }\n            else{\n                state = State.Failed; \n                completedAt = now;\n                getRefund();\n            }\n        } \n        \n    }\n\n        function payOut()\n        public\n        inState(State.Successful)\n        {\n            \n            if(!beneficiary.send(address(this).balance)) {\n                revert();\n            }\n\n            state = State.Closed;\n            currentBalance = 0;\n           emit  LogWinnerPaid(beneficiary);\n        }\n\n        function getRefund()\n        public\n        inState(State.Failed) \n        returns (bool)\n        {\n            for(uint i=0; i<=contributions.length; i++)\n            {\n                if(contributions[i].contributor == msg.sender){\n                    uint amountToRefund = contributions[i].amount;\n                    contributions[i].amount = 0;\n                    if(!contributions[i].contributor.send(amountToRefund)) {\n                        contributions[i].amount = amountToRefund;\n                        return false;\n                    }\n                    else{\n                        totalRaised -= amountToRefund;\n                        currentBalance = totalRaised;\n                    }\n                    return true;\n                }\n            }\n            return false;\n        }\n\n        function removeContract()\n        public\n        isCreator()\n        atEndOfLifecycle()\n        {\n            selfdestruct(msg.sender);\n            \n        }\n\n        function () public { revert(); }\n}\n",
  "sourcePath": "/home/saurabh/Desktop/Work/IDE/Blockchain/truffle/First Token/contracts/CrowdSale.sol",
  "compiler": {
    "name": "solc",
    "version": "0.4.23+commit.124ca40d.Emscripten.clang"
  },
  "schemaVersion": "2.0.0",
  "updatedAt": "2018-05-19T09:34:21.355Z"
}