{
  "contractName": "TCoin",
  "abi": [
    {
      "constant": true,
      "inputs": [],
      "name": "name",
      "outputs": [
        {
          "name": "",
          "type": "string"
        }
      ],
      "payable": false,
      "stateMutability": "view",
      "type": "function"
    },
    {
      "constant": true,
      "inputs": [],
      "name": "totalSupply",
      "outputs": [
        {
          "name": "",
          "type": "uint256"
        }
      ],
      "payable": false,
      "stateMutability": "view",
      "type": "function"
    },
    {
      "constant": true,
      "inputs": [],
      "name": "decimals",
      "outputs": [
        {
          "name": "",
          "type": "uint8"
        }
      ],
      "payable": false,
      "stateMutability": "view",
      "type": "function"
    },
    {
      "constant": true,
      "inputs": [],
      "name": "standard",
      "outputs": [
        {
          "name": "",
          "type": "string"
        }
      ],
      "payable": false,
      "stateMutability": "view",
      "type": "function"
    },
    {
      "constant": true,
      "inputs": [
        {
          "name": "",
          "type": "address"
        }
      ],
      "name": "balanceOf",
      "outputs": [
        {
          "name": "",
          "type": "uint256"
        }
      ],
      "payable": false,
      "stateMutability": "view",
      "type": "function"
    },
    {
      "constant": true,
      "inputs": [],
      "name": "symbol",
      "outputs": [
        {
          "name": "",
          "type": "string"
        }
      ],
      "payable": false,
      "stateMutability": "view",
      "type": "function"
    },
    {
      "constant": true,
      "inputs": [
        {
          "name": "",
          "type": "address"
        },
        {
          "name": "",
          "type": "address"
        }
      ],
      "name": "allowance",
      "outputs": [
        {
          "name": "",
          "type": "uint256"
        }
      ],
      "payable": false,
      "stateMutability": "view",
      "type": "function"
    },
    {
      "inputs": [
        {
          "name": "initialSupply",
          "type": "uint256"
        },
        {
          "name": "tokenName",
          "type": "string"
        },
        {
          "name": "tokenSymbol",
          "type": "string"
        },
        {
          "name": "decimalUnits",
          "type": "uint8"
        }
      ],
      "payable": false,
      "stateMutability": "nonpayable",
      "type": "constructor"
    },
    {
      "anonymous": false,
      "inputs": [
        {
          "indexed": true,
          "name": "from",
          "type": "address"
        },
        {
          "indexed": true,
          "name": "to",
          "type": "address"
        },
        {
          "indexed": false,
          "name": "value",
          "type": "uint256"
        }
      ],
      "name": "Transfer",
      "type": "event"
    },
    {
      "constant": false,
      "inputs": [
        {
          "name": "_to",
          "type": "address"
        },
        {
          "name": "_value",
          "type": "uint256"
        }
      ],
      "name": "transfer",
      "outputs": [],
      "payable": false,
      "stateMutability": "nonpayable",
      "type": "function"
    },
    {
      "constant": false,
      "inputs": [
        {
          "name": "_spender",
          "type": "address"
        },
        {
          "name": "_value",
          "type": "uint256"
        }
      ],
      "name": "approve",
      "outputs": [
        {
          "name": "success",
          "type": "bool"
        }
      ],
      "payable": false,
      "stateMutability": "nonpayable",
      "type": "function"
    },
    {
      "constant": false,
      "inputs": [
        {
          "name": "_from",
          "type": "address"
        },
        {
          "name": "_to",
          "type": "address"
        },
        {
          "name": "_value",
          "type": "uint256"
        }
      ],
      "name": "transferFrom",
      "outputs": [
        {
          "name": "success",
          "type": "bool"
        }
      ],
      "payable": false,
      "stateMutability": "nonpayable",
      "type": "function"
    }
  ],
  "bytecode": "0x60806040526040805190810160405280600a81526020017f54436f696e2076312e30000000000000000000000000000000000000000000008152506002908051906020019061004f92919061013c565b5034801561005c57600080fd5b50604051610e62380380610e6283398101806040528101908080519060200190929190805182019291906020018051820192919060200180519060200190929190505050836000803373ffffffffffffffffffffffffffffffffffffffff1673ffffffffffffffffffffffffffffffffffffffff168152602001908152602001600020819055508360068190555080600560006101000a81548160ff021916908360ff160217905550816004908051906020019061011b92919061013c565b50826003908051906020019061013292919061013c565b50505050506101e1565b828054600181600116156101000203166002900490600052602060002090601f016020900481019282601f1061017d57805160ff19168380011785556101ab565b828001600101855582156101ab579182015b828111156101aa57825182559160200191906001019061018f565b5b5090506101b891906101bc565b5090565b6101de91905b808211156101da5760008160009055506001016101c2565b5090565b90565b610c72806101f06000396000f3006080604052600436106100a4576000357c0100000000000000000000000000000000000000000000000000000000900463ffffffff16806306fdde03146100a9578063095ea7b31461013957806318160ddd1461019e57806323b872dd146101c9578063313ce5671461024e5780635a3b7e421461027f57806370a082311461030f57806395d89b4114610366578063a9059cbb146103f6578063dd62ed3e14610443575b600080fd5b3480156100b557600080fd5b506100be6104ba565b6040518080602001828103825283818151815260200191508051906020019080838360005b838110156100fe5780820151818401526020810190506100e3565b50505050905090810190601f16801561012b5780820380516001836020036101000a031916815260200191505b509250505060405180910390f35b34801561014557600080fd5b50610184600480360381019080803573ffffffffffffffffffffffffffffffffffffffff16906020019092919080359060200190929190505050610558565b604051808215151515815260200191505060405180910390f35b3480156101aa57600080fd5b506101b36105e5565b6040518082815260200191505060405180910390f35b3480156101d557600080fd5b50610234600480360381019080803573ffffffffffffffffffffffffffffffffffffffff169060200190929190803573ffffffffffffffffffffffffffffffffffffffff169060200190929190803590602001909291905050506105eb565b604051808215151515815260200191505060405180910390f35b34801561025a57600080fd5b506102636108e1565b604051808260ff1660ff16815260200191505060405180910390f35b34801561028b57600080fd5b506102946108f4565b6040518080602001828103825283818151815260200191508051906020019080838360005b838110156102d45780820151818401526020810190506102b9565b50505050905090810190601f1680156103015780820380516001836020036101000a031916815260200191505b509250505060405180910390f35b34801561031b57600080fd5b50610350600480360381019080803573ffffffffffffffffffffffffffffffffffffffff169060200190929190505050610992565b6040518082815260200191505060405180910390f35b34801561037257600080fd5b5061037b6109aa565b6040518080602001828103825283818151815260200191508051906020019080838360005b838110156103bb5780820151818401526020810190506103a0565b50505050905090810190601f1680156103e85780820380516001836020036101000a031916815260200191505b509250505060405180910390f35b34801561040257600080fd5b50610441600480360381019080803573ffffffffffffffffffffffffffffffffffffffff16906020019092919080359060200190929190505050610a48565b005b34801561044f57600080fd5b506104a4600480360381019080803573ffffffffffffffffffffffffffffffffffffffff169060200190929190803573ffffffffffffffffffffffffffffffffffffffff169060200190929190505050610c21565b6040518082815260200191505060405180910390f35b60038054600181600116156101000203166002900480601f0160208091040260200160405190810160405280929190818152602001828054600181600116156101000203166002900480156105505780601f1061052557610100808354040283529160200191610550565b820191906000526020600020905b81548152906001019060200180831161053357829003601f168201915b505050505081565b600081600160003373ffffffffffffffffffffffffffffffffffffffff1673ffffffffffffffffffffffffffffffffffffffff16815260200190815260200160002060008573ffffffffffffffffffffffffffffffffffffffff1673ffffffffffffffffffffffffffffffffffffffff168152602001908152602001600020819055506001905092915050565b60065481565b6000816000808673ffffffffffffffffffffffffffffffffffffffff1673ffffffffffffffffffffffffffffffffffffffff1681526020019081526020016000205411151561063957600080fd5b6000808473ffffffffffffffffffffffffffffffffffffffff1673ffffffffffffffffffffffffffffffffffffffff16815260200190815260200160002054826000808673ffffffffffffffffffffffffffffffffffffffff1673ffffffffffffffffffffffffffffffffffffffff16815260200190815260200160002054011115156106c557600080fd5b600160008573ffffffffffffffffffffffffffffffffffffffff1673ffffffffffffffffffffffffffffffffffffffff16815260200190815260200160002060003373ffffffffffffffffffffffffffffffffffffffff1673ffffffffffffffffffffffffffffffffffffffff168152602001908152602001600020548210151561074f57600080fd5b816000808673ffffffffffffffffffffffffffffffffffffffff1673ffffffffffffffffffffffffffffffffffffffff16815260200190815260200160002060008282540392505081905550816000808573ffffffffffffffffffffffffffffffffffffffff1673ffffffffffffffffffffffffffffffffffffffff1681526020019081526020016000206000828254019250508190555081600160008673ffffffffffffffffffffffffffffffffffffffff1673ffffffffffffffffffffffffffffffffffffffff16815260200190815260200160002060003373ffffffffffffffffffffffffffffffffffffffff1673ffffffffffffffffffffffffffffffffffffffff168152602001908152602001600020600082825403925050819055508273ffffffffffffffffffffffffffffffffffffffff168473ffffffffffffffffffffffffffffffffffffffff167fddf252ad1be2c89b69c2b068fc378daa952ba7f163c4a11628f55a4df523b3ef846040518082815260200191505060405180910390a3600190509392505050565b600560009054906101000a900460ff1681565b60028054600181600116156101000203166002900480601f01602080910402602001604051908101604052809291908181526020018280546001816001161561010002031660029004801561098a5780601f1061095f5761010080835404028352916020019161098a565b820191906000526020600020905b81548152906001019060200180831161096d57829003601f168201915b505050505081565b60006020528060005260406000206000915090505481565b60048054600181600116156101000203166002900480601f016020809104026020016040519081016040528092919081815260200182805460018160011615610100020316600290048015610a405780601f10610a1557610100808354040283529160200191610a40565b820191906000526020600020905b815481529060010190602001808311610a2357829003601f168201915b505050505081565b806000803373ffffffffffffffffffffffffffffffffffffffff1673ffffffffffffffffffffffffffffffffffffffff16815260200190815260200160002054111515610a9457600080fd5b6000808373ffffffffffffffffffffffffffffffffffffffff1673ffffffffffffffffffffffffffffffffffffffff16815260200190815260200160002054816000808573ffffffffffffffffffffffffffffffffffffffff1673ffffffffffffffffffffffffffffffffffffffff1681526020019081526020016000205401111515610b2057600080fd5b806000803373ffffffffffffffffffffffffffffffffffffffff1673ffffffffffffffffffffffffffffffffffffffff16815260200190815260200160002060008282540392505081905550806000808473ffffffffffffffffffffffffffffffffffffffff1673ffffffffffffffffffffffffffffffffffffffff168152602001908152602001600020600082825401925050819055508173ffffffffffffffffffffffffffffffffffffffff163373ffffffffffffffffffffffffffffffffffffffff167fddf252ad1be2c89b69c2b068fc378daa952ba7f163c4a11628f55a4df523b3ef836040518082815260200191505060405180910390a35050565b60016020528160005260406000206020528060005260406000206000915091505054815600a165627a7a7230582041a59aace3c2f43f4300890724392add6ffacb4ba3e8aabf51d6f186441b31f90029",
  "source": "pragma solidity ^0.4.8;\n\ncontract admined {\n\taddress public admin;\n\n\tconstructor() public {\n\t\tadmin = msg.sender;\n\t}\n\n\tmodifier onlyAdmin(){\n\t\trequire(msg.sender == admin) ;\n\t\t_;\n\t}\n\n\tfunction transferAdminship(address newAdmin) onlyAdmin public  {\n\t\tadmin = newAdmin;\n\t}\n\n}\n\ncontract TCoin {\n\n\tmapping (address => uint256) public balanceOf;\n\tmapping (address => mapping (address => uint256)) public allowance;\n\t// balanceOf[address] = 5;\n\tstring public standard = \"TCoin v1.0\";\n\tstring public name;\n\tstring public symbol;\n\tuint8 public decimals; \n\tuint256 public totalSupply;\n\tevent Transfer(address indexed from, address indexed to, uint256 value);\n\n\n\tconstructor(uint256 initialSupply, string tokenName, string tokenSymbol, uint8 decimalUnits) public {\n\t\tbalanceOf[msg.sender] = initialSupply;\n\t\ttotalSupply = initialSupply;\n\t\tdecimals = decimalUnits;\n\t\tsymbol = tokenSymbol;\n\t\tname = tokenName;\n\t}\n\n\tfunction transfer(address _to, uint256 _value) public {\n\t\t\trequire(balanceOf[msg.sender] > _value) ;\n\t\trequire(balanceOf[_to] + _value > balanceOf[_to]) ;\n\t\t//if(admin)\n\n\t\tbalanceOf[msg.sender] -= _value;\n\t\tbalanceOf[_to] += _value;\n\t\temit Transfer(msg.sender, _to, _value);\n\t}\n\n\tfunction approve(address _spender, uint256 _value) public returns (bool success){\n\t\tallowance[msg.sender][_spender] = _value;\n\t\treturn true;\n\t}\n\n\tfunction transferFrom(address _from, address _to, uint256 _value) public returns (bool success){\n\t\trequire(balanceOf[_from] > _value) ;\n\t\trequire(balanceOf[_to] + _value > balanceOf[_to]) ;\n\t\trequire(_value < allowance[_from][msg.sender]) ;\n\t\tbalanceOf[_from] -= _value;\n\t\tbalanceOf[_to] += _value;\n\t\tallowance[_from][msg.sender] -= _value;\n\t\temit Transfer(_from, _to, _value);\n\t\treturn true;\n\n\t}\n}\n\ncontract TCoinAdvanced is admined, TCoin{\n\n\tuint256 minimumBalanceForAccounts = 5 finney;\n\tuint256 public sellPrice;\n\tuint256 public buyPrice;\n\n\tconstructor(uint256 initialSupply, string tokenName, string tokenSymbol, uint8 decimalUnits, address centralAdmin) TCoin (0, tokenName, tokenSymbol, decimalUnits ) public {\n\t\t\n\t\tif(centralAdmin != 0)\n\t\t\tadmin = centralAdmin;\n\t\telse\n\t\t\tadmin = msg.sender;\n\t\tbalanceOf[admin] = initialSupply;\n\t\ttotalSupply = initialSupply;\t\n\t}\n\n\tfunction mintToken(address target, uint256 mintedAmount) onlyAdmin public {\n\t\tbalanceOf[target] += mintedAmount;\n\t\ttotalSupply += mintedAmount;\n\t\temit Transfer(0, this, mintedAmount);\n\t\temit Transfer(this, target, mintedAmount);\n\t}\n\n\n\tfunction transfer(address _to, uint256 _value) public {\n\t\trequire(_value>0);\n\t\trequire(balanceOf[msg.sender] >= _value) ;\n\t\trequire(balanceOf[_to] + _value > balanceOf[_to]) ;\n\t\t\n\t\tbalanceOf[msg.sender] -= _value;\n\t\tbalanceOf[_to] += _value;\n\t\temit Transfer(msg.sender, _to, _value);\n\t}\n\n\tfunction transferFrom(address _from, address _to, uint256 _value) public returns (bool success) {\n\t\trequire(balanceOf[_from] > _value) ;\n\t\trequire(balanceOf[_to] + _value > balanceOf[_to]) ;\n\t\trequire(_value < allowance[_from][msg.sender]) ;\n\t\tbalanceOf[_from] -= _value;\n\t\tbalanceOf[_to] += _value;\n\t\tallowance[_from][msg.sender] -= _value;\n\t\temit Transfer(_from, _to, _value);\n\t\treturn true;\n\n\t}\n\n\tfunction setPrices(uint256 newSellPrice, uint256 newBuyPrice) onlyAdmin public {\n\t\tsellPrice = newSellPrice;\n\t\tbuyPrice = newBuyPrice;\n\t}\n\n\tfunction buy() payable  public {\n\t\tuint256 amount = (msg.value/(1 ether)) / buyPrice;\n\t\trequire(balanceOf[this] > amount) ;\n\t\tbalanceOf[msg.sender] += amount;\n\t\tbalanceOf[this] -= amount;\n\t\temit Transfer(this, msg.sender, amount);\n\t}\n\n\tfunction sell(uint256 amount) public {\n\t\trequire(balanceOf[msg.sender] > amount) ;\n\t\tbalanceOf[this] +=amount;\n\t\tbalanceOf[msg.sender] -= amount;\n\t\tif(!msg.sender.send(amount * sellPrice * 1 ether)){\n\t\t\trevert();\n\t\t} else {\n\t\t\t\n\t\t\temit Transfer(msg.sender, this, amount);\n\t\t}\n\t}\n\n}\n\n\n\n\n\n",
  "sourcePath": "/home/saurabh/Desktop/Work/IDE/Blockchain/truffle/ICO tut/contracts/TCoinAdvanced.sol",
  "compiler": {
    "name": "solc",
    "version": "0.4.23+commit.124ca40d.Emscripten.clang"
  },
  "schemaVersion": "2.0.0",
  "updatedAt": "2018-05-13T05:59:49.640Z"
}